:10084700FEFDFBF73F065B4F666D7D077F6F777C8D
:0A000E00011401021000310112007C
:10076B00AE10AF117C007D641203C8744B2FF58261
:10077B0074083EF583E493F50DAE10AF117C007D4C
:10078B000A1203C87C007D0A1203C8744B2DF58234
:10079B0074083CF583E493F50EAE10AF117C007D2D
:1007AB000A1203C8744B2DF58274083CF583E4934D
:0307BB00F50F2215
:1005B900E51464017037F517E51725E025E0FF74A8
:1005C900212517F8A6070517E517B440EB7518405C
:1005D900E4F517C374FF951725E025E0FF7461253D
:1005E90017F8A6070517E517B440E88047E4F5179B
:1005F900AC17E41202C67BC37AF579487840120138
:1006090016E4FBFA7980784212021F1204A9E4FB6E
:10061900FA79FE7842120116E4FBFAF978431200DE
:10062900251202FA74212517F8A6070517E517C33D
:10063900948040BCAC10AD117E387F401203C8C312
:1006490074129F78A2F6E49E18F608E6F58A18E671
:02065900F58C1E
:01065B00227C
:1007BE00E50A24FD602124FE600D1470250511E567
:1007CE0011700C05108008E51115117002151075C9
:1007DE000800750978800B0514531401750800750F
:0C07EE0009A01205B912076BE4F50A22FD
:10082500758911758DF7D28ED2ABD2AFD28CD2A984
:100835001205B9750C7112076BE50A60FC1207BE4B
:0208450080F73A
:03000B000207FAEF
:1007FA00C0E0C0D075D000C000C00778A2E6F58A74
:10080A0018E6F58CAF12051274212FF8E6F590530D
:0B081A00127FD007D000D0D0D0E03219
:03001B000206E8F2
:1006E800C0E0C083C082C0D075D000C000C006C0C2
:1006F80007758DEE75800075A0EFE5094508701641
:10070800E5A05407F50B640760087508007509042F
:10071800801FC200801BE509150970021508E5094C
:100728004508700DE5A05407F50A650B6003750AC6
:1007380000AF13EF3395E0FE74472FF58274083E3F
:10074800F583E493F5A0AF130513740C2FF8E6F5C1
:1007580080531303D007D006D000D0D0D082D083E6
:03076800D0E032AC
:10001E00020366E86480F8E933E83360110460F0A7
:10002E00ED33EC337009E8FCE9FDEAFEEBFF220448
:10003E0060DED3EB9FEA9EE99DE8C2E78CF0C2F743
:10004E0095F0400CE8CCF8E9CDF9EACEFAEBCFFB0F
:10005E0012033185D0F05804700320D5B3E8047034
:10006E00075002B2D502037092D5EC0460F7E4CCCF
:10007E00C0E0C398F8603B94186008400DD0E0FBD8
:10008E00020348E4FBFAC9FC8028E830E406E4C920
:10009E00FBE4CAFCE830E305E4C9CACBFCE854072C
:1000AE006010F8C3E913F9EA13FAEB13FBEC13FC37
:1000BE00D8F130F52FC3E49CFCEF9BFFEE9AFEEDDA
:1000CE0099FDD0E0FBEF4E4D4C701222DB03020384
:1000DE006DEC2CFCEF33FFEE33FEED33FDED30E730
:1000EE00EB020348EF2BFFEE3AFEED39FDD0E0FBBD
:1000FE0050130BBB0003020370ED13FDEE13FEEF66
:08010E0013FFEC13FC0203488F
:10011600EC4D6011E8497017ED33EC3304600DE4E3
:10012600FCFFFEFD22E933E8330470F80203661291
:10013600033158046009E4CC248150062850090292
:10014600037028400302036DC0E0EB4A7044B98097
:1001560006D0E0FB02035CEF4E701CBD8008EBFF8F
:10016600EAFEE9FD80EBE98DF0A4FEE5F00201FF71
:10017600E9CDF9EAFEEBFFEF89F0A4FCE5F0CE89C4
:10018600F0A42EFFE435F0CD89F0A42DFEE435F081
:100196008067EF4E7005BD80D780C3EF8BF0A4ACAF
:1001A600F0EE8BF0A42CFCE435F0F8EF8AF0A42CEA
:1001B600E5F038FCE433CB8DF0A42CFCE5F03BF8FD
:1001C600EE8AF0A42CFCE5F038F8E433CF89F0A4ED
:1001D6002CFCE5F038CF3400CE89F0A42FFFE5F0F3
:1001E6003EFEE433C98DF0A42EFEE5F039CD8AF04B
:1001F600A42FFFE5F03EFEE43DFD33D0E0FB5007C3
:100206000BBB000F020370EC2CFCEF33FFEE33FE4A
:06021600ED33FD02034878
:10021C00020370EC5D046005E85904700302036688
:10022C00120331580460F6EC4860F2EC7004FDFEE9
:10023C00FF22C860DB2481C85009C39860025006B5
:10024C0002036D9850CAF582E9294B4A7005AB82BE
:10025C0002035C75F0007C1A7880C3EF9BEE9AED7C
:10026C0099400DC3EF9BFFEE9AFEED99FDE842F02D
:10027C00DC23ACF0D0E0FFD0E0FED0E0FDAB822080
:10028C00E7101BEB60BAEC2CFCEF33FFEE33FEED0A
:10029C0033FD020348E803F830E705C0F075F000C1
:1002AC00EF2FFFEE33FEED33FD40B830E7C280AAEE
:1002BC0075F020800E75F010800575F0087D007EBD
:1002CC00007F003392D530D50312041DEC3340105F
:1002DC00EF33FFEE33FEED33FDEC33FCD5F0ED22C6
:0E02EC00E5F0247EA2D513CC92E7CDCEFF2202
:1002FA00EDD2E7CD33EC3392D524814006E4FFFEFC
:10030A00FDFC22FCE4CFCECDCC24E0501174FF805A
:10031A00EDC3CC13CCCD13CDCE13CECF13CF0470F7
:07032A00F030D5DE02041DD6
:10044B003A70FA83BCAAE9E43E81E0F8BF9DE9E685
:10045B003F80000039283C1ABB9969663DA335E300
:10046B00BF255DE73FC90FDB418DDBCCC44936EEC1
:10047B0045C9913FC5B0F83D3F800000C317F53427
:10048B00452FFA73C60AFDDD12053A04A2E192016B
:10049B001420E01590044B740412037B8026120584
:1004AB003A30E102B20120E0EB8C198D1A8E1B8FD2
:1004BB001C90045F740412037BA819A91AAA1BAB26
:1004CB001C120116ED4C6007300104EC6480FC2219
:1004DB0012053AC0E08C198D1A8E1B8F1C90048369
:1004EB00740312037BA819A91AAA1BAB1C120116C1
:1004FB00ECC519FCEDC51AFDEEC51BFEEFC51CFFC7
:10050B00900473740312037BD082A819A91AAA1B37
:10051B00AB1CE58230E00712021FB20180A6EFCBC5
:10052B00FFEECAFEEDC9FDECC8FC12021F8095ED73
:10053B0033EC547FCC33920124605007D0E0D0E0F1
:10054B000203667B837AF97922783E120116EDF964
:10055B0033ECF83324815011EFFBEEFA1202FA124E
:10056B0002BCECB2E7FC120025ED33EC33602F2418
:10057B0003F8C313FCED92E7FDE82481E4501FEC74
:10058B00F8EDF9EEFAEFFB1202FAEF04C2E0FCF51C
:10059B00821202C6ECB2E7FC120025E58203FAEDEB
:0E05AB0033EC3360071413FCED92E7FDEA22F7
:10033100E9D2E7C933E833F892D5EDD2E7CD33EC12
:0703410033FC5002B2D5228B
:10034800EC30E7100FBF000C0EBE00080DBD000416
:100358000BEB6014A2D5EB13FCED92E7FD2274FFC2
:10036800FCFDFEFF22E480F8A2D574FF13FC7D801B
:03037800E480EF2F
:10037B00C0E0EFFBEEFAEDF9ECF8120116D0E0F568
:10038B00F0EFFBEEFAEDF9ECF812042BA3A3A3A309
:10039B00E8C0E0E9C0E0EAC0E0EBC0E0C0F0120169
:1003AB001612043BA3A3A3A3120025D0F0D0E0FBAD
:0D03BB00D0E0FAD0E0F9D0E0F8D5F0D4227F
:0300000002065C99
:0C065C00787FE4F6D8FD7581A20206A3A9
:1003C800BC000BBE0029EF8DF084FFADF022E4CC19
:1003D800F875F008EF2FFFEE33FEEC33FCEE9DECE2
:1003E800984005FCEE9DFE0FD5F0E9E4CEFD22ED28
:1003F800F8F5F0EE8420D21CFEADF075F008EF2F72
:10040800FFED33FD4007985006D5F0F222C398FD62
:050418000FD5F0EA22FF
:0E041D00C3E49FFFE49EFEE49DFDE49CFC22F0
:10042B00E493FC740193FD740293FE740393FF2217
:10043B00E493F8740193F9740293FA740393FB2217
:10066800020825E493A3F8E493A34003F68001F27B
:1006780008DFF48029E493A3F85407240CC8C33393
:10068800C4540F4420C8834004F456800146F6DF62
:10069800E4800B010204081020408090000EE47EE4
:1006A800019360BCA3FF543F30E509541FFEE49357
:1006B800A360010ECF54C025E060A840B8E493A31E
:1006C800FAE493A3F8E493A3C8C582C8CAC583CA49
:1006D800F0A3C8C582C8CAC583CADFE9DEE780BE01
:0100180000E7
:00000001FF
