:03029400010DFA5F
:1003E800E50A24F8600824047010740A800274F680
:0E03F800250DF50D750800750978E4F50A224B
:1003C900E50D75F06484F50EE50D75F00A8475F098
:0F03D9000A8485F00BE50D75F00A8485F00F227C
:10001E00758912758DEED28ED2ABD2AF1200F1125F
:10002E0003E81203C97B117D017F017E00120218C5
:10003E007B0A7D017F027E001202187B0B7D017F01
:10004E00037E001202187B0C7D017F047E001202DB
:10005E00187B0F7D017F057E001202187B117D013A
:10006E007F067E00120218AB0E7D017F077E001206
:10007E000218AB0B7D017F087E00120218AB0F7DBC
:10008E00017F097E001202187B117D017F0C7E001C
:10009E001202187B0E7D017F0D7E001202187B115D
:1000AE007D027F017E001202187B0D7D027F027E93
:1000BE00001202187B0B7D027F037E001202187B5A
:1000CE000C7D027F047E001202187B0F7D027F05DD
:1000DE007E001202187B117D027F067E001202182E
:0300EE0002002DE0
:03001B00020324B9
:10032400C0E0758DF7E50945087016E5B0540CF585
:100334000C640C6008750800750904801FC20080F5
:100344001BE509150970021508E5094508700DE556
:0F035400B0540CF50A650C6003750A00D0E03256
:030003000202E313
:1002E300C0E0C0F0C083C082C0D075D000C000C0E1
:1002F30001C002C003C004C005C006C0077F327E30
:1003030000120406150DD007D006D005D004D00383
:10031300D002D001D000D0D0D082D083D0F0D0E0B2
:0103230032A7
:100297002048213E41413E427F400062514946226B
:1002A70049493638267F204F4949313E494932036B
:1002B700710907364949362649493E264949327F59
:1002C700494941017F01013E41493A003E41410010
:0B02D70024000000C0C0000000000078
:10040600EF4E60157DB47C00ED1DAA0470011C4AF8
:0904160070F6EF1F70EA1E80E78A
:01041F0022BA
:0503970012039CE4FFCD
:10039C00ED6004D2958002C295E4FEEEC39408741D
:1003AC008094805015C292EF30E704D2938002C241
:0C03BC0093D292EF25E0FF0E80E1D29575
:0103C8002212
:10036300E4FCECC39408748094805027EC24B0FF21
:10037300E4FD1203977F1012039CE4FBEBC394800C
:1003830074809480500A7D01E4FF12039C0B80EC7F
:030393000C80CF0C
:010396002244
:1000F100D2947F057E00120406C2947F057E001211
:100101000406D294E4FD7FAE1203977F1012039C84
:100111007F4012039C7F8112039C7FCF12039C7F3F
:10012100A112039C7FC812039C7FA612039C7FA887
:1001310012039C7F3F12039C7FD31203977FD5123A
:10014100039C7F8012039C7FD912039C7FF11203D1
:100151009C7FDA12039C7F1212039C7FDB12039CAB
:100161007F4012039C7F2012039C7F0212039C7F1D
:100171008D12039C7F1412039C7FA412039C7FA603
:0B01810012039C7FAF12039C0203637B
:040218008D10A90399
:10021C007C007D061200068E118F12E4FBFAE510AD
:10022C0024B0FFE4FD12039C7E00E51254F0780428
:10023C00CEA2E713CE13D8F84410FFE4FD12039CB2
:10024C00E512540F4401FF12039CE4FAFBEB4A70D5
:10025C0012E9FF3395E0FEEF640E4E70067D017FD0
:10026C00018016EB4A70057D01FF800DE925E02524
:10027C00E024202BF8E6FF7D0112039C0BBB000150
:07028C000AEB64054A70C68D
:010293002248
:0300000002018C6E
:0C018C00787FE4F6D8FD7581680201D38D
:10000600EF8DF0A4A8F0CF8CF0A428CE8DF0A42E0E
:02001600FE22C8
:1001980002001EE493A3F8E493A34003F68001F25F
:1001A80008DFF48029E493A3F85407240CC8C33368
:1001B800C4540F4420C8834004F456800146F6DF37
:1001C800E4800B0102040810204080900294E47E31
:1001D800019360BCA3FF543F30E509541FFEE4932C
:1001E800A360010ECF54C025E060A840B8E493A3F3
:1001F800FAE493A3F8E493A3C8C582C8CAC583CA1E
:10020800F0A3C8C582C8CAC583CADFE9DEE780BED5
:0102E200001B
:00000001FF
